{
  "_format": "hh-sol-artifact-1",
  "contractName": "BuilderVaultImpl",
  "sourceName": "contracts/vault/BuilderVaultImpl.sol",
  "abi": [
    {
      "inputs": [
        {
          "internalType": "address",
          "name": "_builderGarden",
          "type": "address"
        },
        {
          "internalType": "address",
          "name": "_altContract",
          "type": "address"
        }
      ],
      "stateMutability": "nonpayable",
      "type": "constructor"
    },
    {
      "anonymous": false,
      "inputs": [
        {
          "indexed": false,
          "internalType": "uint8",
          "name": "version",
          "type": "uint8"
        }
      ],
      "name": "Initialized",
      "type": "event"
    },
    {
      "anonymous": false,
      "inputs": [
        {
          "indexed": true,
          "internalType": "address",
          "name": "previousOwner",
          "type": "address"
        },
        {
          "indexed": true,
          "internalType": "address",
          "name": "newOwner",
          "type": "address"
        }
      ],
      "name": "OwnershipTransferred",
      "type": "event"
    },
    {
      "inputs": [],
      "name": "claim",
      "outputs": [],
      "stateMutability": "nonpayable",
      "type": "function"
    },
    {
      "inputs": [
        {
          "internalType": "uint256",
          "name": "numUnits",
          "type": "uint256"
        }
      ],
      "name": "fund",
      "outputs": [],
      "stateMutability": "payable",
      "type": "function"
    },
    {
      "inputs": [],
      "name": "getFundedInfo",
      "outputs": [
        {
          "internalType": "address[]",
          "name": "",
          "type": "address[]"
        },
        {
          "internalType": "uint256",
          "name": "",
          "type": "uint256"
        }
      ],
      "stateMutability": "view",
      "type": "function"
    },
    {
      "inputs": [
        {
          "internalType": "address",
          "name": "_builder",
          "type": "address"
        },
        {
          "internalType": "uint256",
          "name": "_totalAmount",
          "type": "uint256"
        },
        {
          "internalType": "uint256",
          "name": "_deadline",
          "type": "uint256"
        }
      ],
      "name": "initialize",
      "outputs": [],
      "stateMutability": "nonpayable",
      "type": "function"
    },
    {
      "inputs": [],
      "name": "isClaimed",
      "outputs": [
        {
          "internalType": "bool",
          "name": "",
          "type": "bool"
        }
      ],
      "stateMutability": "view",
      "type": "function"
    },
    {
      "inputs": [],
      "name": "owner",
      "outputs": [
        {
          "internalType": "address",
          "name": "",
          "type": "address"
        }
      ],
      "stateMutability": "view",
      "type": "function"
    },
    {
      "inputs": [],
      "name": "renounceOwnership",
      "outputs": [],
      "stateMutability": "nonpayable",
      "type": "function"
    },
    {
      "inputs": [
        {
          "internalType": "address",
          "name": "newOwner",
          "type": "address"
        }
      ],
      "name": "transferOwnership",
      "outputs": [],
      "stateMutability": "nonpayable",
      "type": "function"
    }
  ],
  "bytecode": "0x60c060405234801561001057600080fd5b50604051610c4a380380610c4a83398101604081905261002f91610062565b6001600160a01b039182166080521660a052610095565b80516001600160a01b038116811461005d57600080fd5b919050565b6000806040838503121561007557600080fd5b61007e83610046565b915061008c60208401610046565b90509250929050565b60805160a051610b896100c1600039600061033c0152600081816101ea01526106900152610b896000f3fe60806040526004361061007b5760003560e01c80638da5cb5b1161004e5780638da5cb5b146100f45780639b18ed911461011c578063ca1d209d1461013f578063f2fde38b1461015257600080fd5b80634e71d92d1461008057806357c9ca1414610097578063715018a6146100bf5780637a1ac61e146100d4575b600080fd5b34801561008c57600080fd5b50610095610172565b005b3480156100a357600080fd5b5060685460ff1660405190151581526020015b60405180910390f35b3480156100cb57600080fd5b506100956103b9565b3480156100e057600080fd5b506100956100ef366004610979565b6103cd565b34801561010057600080fd5b506033546040516001600160a01b0390911681526020016100b6565b34801561012857600080fd5b506101316104fb565b6040516100b69291906109ae565b61009561014d3660046109ff565b610568565b34801561015e57600080fd5b5061009561016d366004610a18565b61081b565b61017a6108ab565b606554606754146101d25760405162461bcd60e51b815260206004820152600c60248201527f6e6f742066696e6973686564000000000000000000000000000000000000000060448201526064015b60405180910390fd5b60405163470ed55d60e11b81523360048201526000907f00000000000000000000000000000000000000000000000000000000000000006001600160a01b031690638e1daaba90602401602060405180830381865afa158015610239573d6000803e3d6000fd5b505050506040513d601f19601f8201168201806040525081019061025d9190610a3c565b60695490915060009067ffffffffffffffff81111561027e5761027e610a59565b6040519080825280602002602001820160405280156102a7578160200160208202803683370190505b50905060005b60695481101561032457606a6000606983815481106102ce576102ce610a6f565b60009182526020808320909101546001600160a01b03168352820192909252604001902054825183908390811061030757610307610a6f565b60209081029190910101528061031c81610a9b565b9150506102ad565b506040516351df93bf60e11b81526001600160a01b037f0000000000000000000000000000000000000000000000000000000000000000169063a3bf277e906103769085906069908690600401610ab4565b600060405180830381600087803b15801561039057600080fd5b505af11580156103a4573d6000803e3d6000fd5b50506068805460ff1916600117905550505050565b6103c16108ab565b6103cb6000610905565b565b600054610100900460ff16158080156103ed5750600054600160ff909116105b806104075750303b158015610407575060005460ff166001145b6104795760405162461bcd60e51b815260206004820152602e60248201527f496e697469616c697a61626c653a20636f6e747261637420697320616c72656160448201527f647920696e697469616c697a656400000000000000000000000000000000000060648201526084016101c9565b6000805460ff19166001179055801561049c576000805461ff0019166101001790555b6104a584610905565b6065839055606682905580156104f5576000805461ff0019169055604051600181527f7f26b83ff96e1f2b6a682f133852f6798a09c465da95921460cefb38474024989060200160405180910390a15b50505050565b6060600060696067548180548060200260200160405190810160405280929190818152602001828054801561055957602002820191906000526020600020905b81546001600160a01b0316815260019091019060200180831161053b575b50505050509150915091509091565b606554346067546105799190610b4c565b11156105c75760405162461bcd60e51b815260206004820152600a60248201527f6f76657266756e6465640000000000000000000000000000000000000000000060448201526064016101c9565b6066544211156106195760405162461bcd60e51b815260206004820152600760248201527f6f7665726475650000000000000000000000000000000000000000000000000060448201526064016101c9565b61062a66b1a2bc2ec5000082610b65565b34146106785760405162461bcd60e51b815260206004820152600e60248201527f696e657861637420616d6f756e7400000000000000000000000000000000000060448201526064016101c9565b60405163470ed55d60e11b81523360048201526000907f00000000000000000000000000000000000000000000000000000000000000006001600160a01b031690638e1daaba90602401602060405180830381865afa1580156106df573d6000803e3d6000fd5b505050506040513d601f19601f820116820180604052508101906107039190610a3c565b90506001600160a01b03811661075b5760405162461bcd60e51b815260206004820152601660248201527f696e76616c6964206261636b657220616464726573730000000000000000000060448201526064016101c9565b346067600082825461076d9190610b4c565b90915550506001600160a01b0381166000908152606a602052604081205490036107ea57606980546001810182556000919091527f7fb4302e8e91f9110a6554c2c0a24601252c2a42c2220ca988efcfe39991430801805473ffffffffffffffffffffffffffffffffffffffff19166001600160a01b0383161790555b6001600160a01b0381166000908152606a602052604081208054849290610812908490610b4c565b90915550505050565b6108236108ab565b6001600160a01b03811661089f5760405162461bcd60e51b815260206004820152602660248201527f4f776e61626c653a206e6577206f776e657220697320746865207a65726f206160448201527f646472657373000000000000000000000000000000000000000000000000000060648201526084016101c9565b6108a881610905565b50565b6033546001600160a01b031633146103cb5760405162461bcd60e51b815260206004820181905260248201527f4f776e61626c653a2063616c6c6572206973206e6f7420746865206f776e657260448201526064016101c9565b603380546001600160a01b0383811673ffffffffffffffffffffffffffffffffffffffff19831681179093556040519116919082907f8be0079c531659141344cd1fd0a4f28419497f9722a3daafe3b4186f6b6457e090600090a35050565b6001600160a01b03811681146108a857600080fd5b60008060006060848603121561098e57600080fd5b833561099981610964565b95602085013595506040909401359392505050565b604080825283519082018190526000906020906060840190828701845b828110156109f05781516001600160a01b0316845292840192908401906001016109cb565b50505092019290925292915050565b600060208284031215610a1157600080fd5b5035919050565b600060208284031215610a2a57600080fd5b8135610a3581610964565b9392505050565b600060208284031215610a4e57600080fd5b8151610a3581610964565b634e487b7160e01b600052604160045260246000fd5b634e487b7160e01b600052603260045260246000fd5b634e487b7160e01b600052601160045260246000fd5b600060018201610aad57610aad610a85565b5060010190565b6000606082016001600160a01b03808716845260206060818601528287548085526080870191508860005282600020945060005b81811015610b06578554851683526001958601959284019201610ae8565b5050858103604087015286518082529082019350915080860160005b83811015610b3e57815185529382019390820190600101610b22565b509298975050505050505050565b80820180821115610b5f57610b5f610a85565b92915050565b8082028115828204841417610b5f57610b5f610a8556fea164736f6c6343000813000a",
  "linkReferences": {},
  "deployedLinkReferences": {}
}