{
  "_format": "hh-sol-artifact-1",
  "contractName": "BuilderVaultFactory",
  "sourceName": "contracts/vault/BuilderVaultFactory.sol",
  "abi": [
    {
      "inputs": [
        {
          "internalType": "address",
          "name": "_beacon",
          "type": "address"
        },
        {
          "internalType": "address",
          "name": "_builderGardenTBARegistry",
          "type": "address"
        }
      ],
      "stateMutability": "nonpayable",
      "type": "constructor"
    },
    {
      "anonymous": false,
      "inputs": [
        {
          "indexed": false,
          "internalType": "string",
          "name": "title",
          "type": "string"
        },
        {
          "indexed": false,
          "internalType": "address",
          "name": "builder",
          "type": "address"
        },
        {
          "indexed": false,
          "internalType": "address",
          "name": "vault",
          "type": "address"
        },
        {
          "components": [
            {
              "internalType": "string",
              "name": "title",
              "type": "string"
            },
            {
              "internalType": "uint256",
              "name": "totalAmount",
              "type": "uint256"
            },
            {
              "internalType": "uint256",
              "name": "deadline",
              "type": "uint256"
            }
          ],
          "indexed": false,
          "internalType": "struct BuilderVaultFactory.FundingConfig",
          "name": "fundingConfig",
          "type": "tuple"
        }
      ],
      "name": "VaultCreated",
      "type": "event"
    },
    {
      "inputs": [
        {
          "components": [
            {
              "internalType": "string",
              "name": "title",
              "type": "string"
            },
            {
              "internalType": "uint256",
              "name": "totalAmount",
              "type": "uint256"
            },
            {
              "internalType": "uint256",
              "name": "deadline",
              "type": "uint256"
            }
          ],
          "internalType": "struct BuilderVaultFactory.FundingConfig",
          "name": "fundingConfig",
          "type": "tuple"
        }
      ],
      "name": "deployVault",
      "outputs": [],
      "stateMutability": "nonpayable",
      "type": "function"
    }
  ],
  "bytecode": "0x60a060405234801561001057600080fd5b506040516103e43803806103e483398101604081905261002f91610073565b6001600160a01b03918216608052600080546001600160a01b031916919092161790556100a6565b80516001600160a01b038116811461006e57600080fd5b919050565b6000806040838503121561008657600080fd5b61008f83610057565b915061009d60208401610057565b90509250929050565b6080516103246100c06000396000604901526103246000f3fe608060405234801561001057600080fd5b506004361061002b5760003560e01c8063334c7d3314610030575b600080fd5b61004361003e366004610189565b610045565b005b60007f00000000000000000000000000000000000000000000000000000000000000006001600160a01b03166344882b956040518163ffffffff1660e01b81526004016020604051808303816000875af11580156100a7573d6000803e3d6000fd5b505050506040513d601f19601f820116820180604052508101906100cb91906101cb565b60408051633d0d630f60e11b8152336004820152602085013560248201529084013560448201529091506001600160a01b03821690637a1ac61e90606401600060405180830381600087803b15801561012357600080fd5b505af1158015610137573d6000803e3d6000fd5b507f2495bff53085a54e3720ac529264f7489716591c25f0296354f1e8ffb714cded92506101699150849050806101f4565b33848660405161017d95949392919061026b565b60405180910390a15050565b60006020828403121561019b57600080fd5b813567ffffffffffffffff8111156101b257600080fd5b8201606081850312156101c457600080fd5b9392505050565b6000602082840312156101dd57600080fd5b81516001600160a01b03811681146101c457600080fd5b6000808335601e1984360301811261020b57600080fd5b83018035915067ffffffffffffffff82111561022657600080fd5b60200191503681900382131561023b57600080fd5b9250929050565b81835281816020850137506000828201602090810191909152601f909101601f19169091010190565b60808152600061027f608083018789610242565b6001600160a01b038681166020850152851660408401528281036060840152833536859003601e190181126102b357600080fd5b840160208101903567ffffffffffffffff8111156102d057600080fd5b8036038213156102df57600080fd5b606083526102f1606084018284610242565b91505060208501356020830152604085013560408301528092505050969550505050505056fea164736f6c6343000813000a",
  "linkReferences": {},
  "deployedLinkReferences": {}
}