{
  "_format": "hh-sol-artifact-1",
  "contractName": "BuilderGardenTBA",
  "sourceName": "contracts/BuilderGardenTBA.sol",
  "abi": [
    {
      "anonymous": false,
      "inputs": [
        {
          "indexed": true,
          "internalType": "address",
          "name": "target",
          "type": "address"
        },
        {
          "indexed": true,
          "internalType": "uint256",
          "name": "value",
          "type": "uint256"
        },
        {
          "indexed": false,
          "internalType": "bytes",
          "name": "data",
          "type": "bytes"
        }
      ],
      "name": "TransactionExecuted",
      "type": "event"
    },
    {
      "inputs": [
        {
          "internalType": "address",
          "name": "to",
          "type": "address"
        },
        {
          "internalType": "uint256",
          "name": "value",
          "type": "uint256"
        },
        {
          "internalType": "bytes",
          "name": "data",
          "type": "bytes"
        }
      ],
      "name": "executeCall",
      "outputs": [
        {
          "internalType": "bytes",
          "name": "result",
          "type": "bytes"
        }
      ],
      "stateMutability": "payable",
      "type": "function"
    },
    {
      "inputs": [
        {
          "internalType": "bytes32",
          "name": "hash",
          "type": "bytes32"
        },
        {
          "internalType": "bytes",
          "name": "signature",
          "type": "bytes"
        }
      ],
      "name": "isValidSignature",
      "outputs": [
        {
          "internalType": "bytes4",
          "name": "magicValue",
          "type": "bytes4"
        }
      ],
      "stateMutability": "view",
      "type": "function"
    },
    {
      "inputs": [],
      "name": "nonce",
      "outputs": [
        {
          "internalType": "uint256",
          "name": "",
          "type": "uint256"
        }
      ],
      "stateMutability": "view",
      "type": "function"
    },
    {
      "inputs": [
        {
          "internalType": "address",
          "name": "",
          "type": "address"
        },
        {
          "internalType": "address",
          "name": "",
          "type": "address"
        },
        {
          "internalType": "uint256[]",
          "name": "",
          "type": "uint256[]"
        },
        {
          "internalType": "uint256[]",
          "name": "",
          "type": "uint256[]"
        },
        {
          "internalType": "bytes",
          "name": "",
          "type": "bytes"
        }
      ],
      "name": "onERC1155BatchReceived",
      "outputs": [
        {
          "internalType": "bytes4",
          "name": "",
          "type": "bytes4"
        }
      ],
      "stateMutability": "nonpayable",
      "type": "function"
    },
    {
      "inputs": [
        {
          "internalType": "address",
          "name": "",
          "type": "address"
        },
        {
          "internalType": "address",
          "name": "",
          "type": "address"
        },
        {
          "internalType": "uint256",
          "name": "",
          "type": "uint256"
        },
        {
          "internalType": "uint256",
          "name": "",
          "type": "uint256"
        },
        {
          "internalType": "bytes",
          "name": "",
          "type": "bytes"
        }
      ],
      "name": "onERC1155Received",
      "outputs": [
        {
          "internalType": "bytes4",
          "name": "",
          "type": "bytes4"
        }
      ],
      "stateMutability": "nonpayable",
      "type": "function"
    },
    {
      "inputs": [],
      "name": "owner",
      "outputs": [
        {
          "internalType": "address",
          "name": "",
          "type": "address"
        }
      ],
      "stateMutability": "view",
      "type": "function"
    },
    {
      "inputs": [
        {
          "internalType": "bytes4",
          "name": "interfaceId",
          "type": "bytes4"
        }
      ],
      "name": "supportsInterface",
      "outputs": [
        {
          "internalType": "bool",
          "name": "",
          "type": "bool"
        }
      ],
      "stateMutability": "view",
      "type": "function"
    },
    {
      "inputs": [],
      "name": "token",
      "outputs": [
        {
          "internalType": "uint256",
          "name": "",
          "type": "uint256"
        },
        {
          "internalType": "address",
          "name": "",
          "type": "address"
        },
        {
          "internalType": "uint256",
          "name": "",
          "type": "uint256"
        }
      ],
      "stateMutability": "view",
      "type": "function"
    },
    {
      "stateMutability": "payable",
      "type": "receive"
    }
  ],
  "bytecode": "0x608060405234801561001057600080fd5b50610c87806100206000396000f3fe60806040526004361061007f5760003560e01c8063affed0e01161004e578063affed0e014610146578063bc197c811461016a578063f23a6e6114610196578063fc0c546a146101c257600080fd5b806301ffc9a71461008b5780631626ba7e146100c05780638da5cb5b146100f95780639e5d4c491461012657600080fd5b3661008657005b600080fd5b34801561009757600080fd5b506100ab6100a636600461078f565b6101fa565b60405190151581526020015b60405180910390f35b3480156100cc57600080fd5b506100e06100db366004610870565b610225565b6040516001600160e01b031990911681526020016100b7565b34801561010557600080fd5b5061010e61025c565b6040516001600160a01b0390911681526020016100b7565b6101396101343660046108cf565b61034c565b6040516100b791906109a8565b34801561015257600080fd5b5061015c60005481565b6040519081526020016100b7565b34801561017657600080fd5b506100e0610185366004610a3b565b63bc197c8160e01b95945050505050565b3480156101a257600080fd5b506100e06101b1366004610ae9565b63f23a6e6160e01b95945050505050565b3480156101ce57600080fd5b506101d761048d565b604080519384526001600160a01b039092166020840152908201526060016100b7565b60006001600160e01b03198216630801407360e31b148061021f575061021f826104a5565b92915050565b60008061023a61023361025c565b85856104da565b905080156102525750630b135d3f60e11b905061021f565b5060009392505050565b600080600080306001600160a01b031663fc0c546a6040518163ffffffff1660e01b8152600401606060405180830381865afa1580156102a0573d6000803e3d6000fd5b505050506040513d601f19601f820116820180604052508101906102c49190610b52565b9250925092504683146102db576000935050505090565b6040516331a9108f60e11b8152600481018290526001600160a01b03831690636352211e90602401602060405180830381865afa158015610320573d6000803e3d6000fd5b505050506040513d601f19601f820116820180604052508101906103449190610b8b565b935050505090565b606061035661025c565b6001600160a01b0316336001600160a01b0316146103ba5760405162461bcd60e51b815260206004820152600f60248201527f4e6f7420746f6b656e206f776e65720000000000000000000000000000000000604482015260640160405180910390fd5b60008081546103c890610ba8565b9190508190555083856001600160a01b03167f47d99ad340f52da66535aff7e10da1ceb85a32bcbd9fa1c42314d194545e14d2858560405161040b929190610bcf565b60405180910390a36000856001600160a01b0316858585604051610430929190610bfe565b60006040518083038185875af1925050503d806000811461046d576040519150601f19603f3d011682016040523d82523d6000602084013e610472565b606091505b50925090508061048457815160208301fd5b50949350505050565b600080600061049a610633565b925092509250909192565b60006001600160e01b03198216630271189760e51b148061021f57506301ffc9a760e01b6001600160e01b031983161461021f565b60008060006104e98585610686565b9092509050600081600481111561050257610502610c0e565b1480156105205750856001600160a01b0316826001600160a01b0316145b156105305760019250505061062c565b600080876001600160a01b0316631626ba7e60e01b8888604051602401610558929190610c24565b60408051601f198184030181529181526020820180517bffffffffffffffffffffffffffffffffffffffffffffffffffffffff166001600160e01b03199094169390931790925290516105ab9190610c45565b600060405180830381855afa9150503d80600081146105e6576040519150601f19603f3d011682016040523d82523d6000602084013e6105eb565b606091505b50915091508180156105fe575080516020145b801561062557508051630b135d3f60e11b906106239083016020908101908401610c61565b145b9450505050505b9392505050565b60408051606080825260808201909252600091829182918291906020820181803683370190505090506060604d60208301303c8080602001905181019061067a9190610b52565b93509350935050909192565b60008082516041036106bc5760208301516040840151606085015160001a6106b0878285856106cb565b945094505050506106c4565b506000905060025b9250929050565b6000807f7fffffffffffffffffffffffffffffff5d576e7357a4501ddfe92f46681b20a08311156107025750600090506003610786565b6040805160008082526020820180845289905260ff881692820192909252606081018690526080810185905260019060a0016020604051602081039080840390855afa158015610756573d6000803e3d6000fd5b5050604051601f1901519150506001600160a01b03811661077f57600060019250925050610786565b9150600090505b94509492505050565b6000602082840312156107a157600080fd5b81356001600160e01b03198116811461062c57600080fd5b634e487b7160e01b600052604160045260246000fd5b604051601f8201601f1916810167ffffffffffffffff811182821017156107f8576107f86107b9565b604052919050565b600082601f83011261081157600080fd5b813567ffffffffffffffff81111561082b5761082b6107b9565b61083e601f8201601f19166020016107cf565b81815284602083860101111561085357600080fd5b816020850160208301376000918101602001919091529392505050565b6000806040838503121561088357600080fd5b82359150602083013567ffffffffffffffff8111156108a157600080fd5b6108ad85828601610800565b9150509250929050565b6001600160a01b03811681146108cc57600080fd5b50565b600080600080606085870312156108e557600080fd5b84356108f0816108b7565b935060208501359250604085013567ffffffffffffffff8082111561091457600080fd5b818701915087601f83011261092857600080fd5b81358181111561093757600080fd5b88602082850101111561094957600080fd5b95989497505060200194505050565b60005b8381101561097357818101518382015260200161095b565b50506000910152565b60008151808452610994816020860160208601610958565b601f01601f19169290920160200192915050565b60208152600061062c602083018461097c565b600082601f8301126109cc57600080fd5b8135602067ffffffffffffffff8211156109e8576109e86107b9565b8160051b6109f78282016107cf565b9283528481018201928281019087851115610a1157600080fd5b83870192505b84831015610a3057823582529183019190830190610a17565b979650505050505050565b600080600080600060a08688031215610a5357600080fd5b8535610a5e816108b7565b94506020860135610a6e816108b7565b9350604086013567ffffffffffffffff80821115610a8b57600080fd5b610a9789838a016109bb565b94506060880135915080821115610aad57600080fd5b610ab989838a016109bb565b93506080880135915080821115610acf57600080fd5b50610adc88828901610800565b9150509295509295909350565b600080600080600060a08688031215610b0157600080fd5b8535610b0c816108b7565b94506020860135610b1c816108b7565b93506040860135925060608601359150608086013567ffffffffffffffff811115610b4657600080fd5b610adc88828901610800565b600080600060608486031215610b6757600080fd5b835192506020840151610b79816108b7565b80925050604084015190509250925092565b600060208284031215610b9d57600080fd5b815161062c816108b7565b600060018201610bc857634e487b7160e01b600052601160045260246000fd5b5060010190565b60208152816020820152818360408301376000818301604090810191909152601f909201601f19160101919050565b8183823760009101908152919050565b634e487b7160e01b600052602160045260246000fd5b828152604060208201526000610c3d604083018461097c565b949350505050565b60008251610c57818460208701610958565b9190910192915050565b600060208284031215610c7357600080fd5b505191905056fea164736f6c6343000813000a",
  "linkReferences": {},
  "deployedLinkReferences": {}
}