{
  "_format": "hh-sol-artifact-1",
  "contractName": "BuilderGardenNft",
  "sourceName": "contracts/nft/BuilderGardenNft.sol",
  "abi": [
    {
      "inputs": [],
      "stateMutability": "nonpayable",
      "type": "constructor"
    },
    {
      "inputs": [],
      "name": "SoulBounded",
      "type": "error"
    },
    {
      "anonymous": false,
      "inputs": [
        {
          "indexed": true,
          "internalType": "address",
          "name": "owner",
          "type": "address"
        },
        {
          "indexed": true,
          "internalType": "address",
          "name": "approved",
          "type": "address"
        },
        {
          "indexed": true,
          "internalType": "uint256",
          "name": "tokenId",
          "type": "uint256"
        }
      ],
      "name": "Approval",
      "type": "event"
    },
    {
      "anonymous": false,
      "inputs": [
        {
          "indexed": true,
          "internalType": "address",
          "name": "owner",
          "type": "address"
        },
        {
          "indexed": true,
          "internalType": "address",
          "name": "operator",
          "type": "address"
        },
        {
          "indexed": false,
          "internalType": "bool",
          "name": "approved",
          "type": "bool"
        }
      ],
      "name": "ApprovalForAll",
      "type": "event"
    },
    {
      "anonymous": false,
      "inputs": [
        {
          "indexed": true,
          "internalType": "address",
          "name": "previousOwner",
          "type": "address"
        },
        {
          "indexed": true,
          "internalType": "address",
          "name": "newOwner",
          "type": "address"
        }
      ],
      "name": "OwnershipTransferred",
      "type": "event"
    },
    {
      "anonymous": false,
      "inputs": [
        {
          "indexed": true,
          "internalType": "address",
          "name": "from",
          "type": "address"
        },
        {
          "indexed": true,
          "internalType": "address",
          "name": "to",
          "type": "address"
        },
        {
          "indexed": true,
          "internalType": "uint256",
          "name": "tokenId",
          "type": "uint256"
        }
      ],
      "name": "Transfer",
      "type": "event"
    },
    {
      "inputs": [
        {
          "internalType": "address",
          "name": "to",
          "type": "address"
        },
        {
          "internalType": "uint256",
          "name": "tokenId",
          "type": "uint256"
        }
      ],
      "name": "approve",
      "outputs": [],
      "stateMutability": "nonpayable",
      "type": "function"
    },
    {
      "inputs": [
        {
          "internalType": "address",
          "name": "owner",
          "type": "address"
        }
      ],
      "name": "balanceOf",
      "outputs": [
        {
          "internalType": "uint256",
          "name": "",
          "type": "uint256"
        }
      ],
      "stateMutability": "view",
      "type": "function"
    },
    {
      "inputs": [
        {
          "internalType": "uint256",
          "name": "tokenId",
          "type": "uint256"
        }
      ],
      "name": "getAccount",
      "outputs": [
        {
          "internalType": "address",
          "name": "",
          "type": "address"
        }
      ],
      "stateMutability": "view",
      "type": "function"
    },
    {
      "inputs": [
        {
          "internalType": "uint256",
          "name": "tokenId",
          "type": "uint256"
        }
      ],
      "name": "getApproved",
      "outputs": [
        {
          "internalType": "address",
          "name": "",
          "type": "address"
        }
      ],
      "stateMutability": "view",
      "type": "function"
    },
    {
      "inputs": [
        {
          "internalType": "address",
          "name": "owner",
          "type": "address"
        },
        {
          "internalType": "address",
          "name": "operator",
          "type": "address"
        }
      ],
      "name": "isApprovedForAll",
      "outputs": [
        {
          "internalType": "bool",
          "name": "",
          "type": "bool"
        }
      ],
      "stateMutability": "view",
      "type": "function"
    },
    {
      "inputs": [],
      "name": "name",
      "outputs": [
        {
          "internalType": "string",
          "name": "",
          "type": "string"
        }
      ],
      "stateMutability": "view",
      "type": "function"
    },
    {
      "inputs": [],
      "name": "owner",
      "outputs": [
        {
          "internalType": "address",
          "name": "",
          "type": "address"
        }
      ],
      "stateMutability": "view",
      "type": "function"
    },
    {
      "inputs": [
        {
          "internalType": "uint256",
          "name": "tokenId",
          "type": "uint256"
        }
      ],
      "name": "ownerOf",
      "outputs": [
        {
          "internalType": "address",
          "name": "",
          "type": "address"
        }
      ],
      "stateMutability": "view",
      "type": "function"
    },
    {
      "inputs": [],
      "name": "renounceOwnership",
      "outputs": [],
      "stateMutability": "nonpayable",
      "type": "function"
    },
    {
      "inputs": [
        {
          "internalType": "address",
          "name": "to",
          "type": "address"
        },
        {
          "internalType": "uint256",
          "name": "tokenId",
          "type": "uint256"
        }
      ],
      "name": "safeMint",
      "outputs": [],
      "stateMutability": "nonpayable",
      "type": "function"
    },
    {
      "inputs": [
        {
          "internalType": "address",
          "name": "from",
          "type": "address"
        },
        {
          "internalType": "address",
          "name": "to",
          "type": "address"
        },
        {
          "internalType": "uint256",
          "name": "tokenId",
          "type": "uint256"
        }
      ],
      "name": "safeTransferFrom",
      "outputs": [],
      "stateMutability": "nonpayable",
      "type": "function"
    },
    {
      "inputs": [
        {
          "internalType": "address",
          "name": "from",
          "type": "address"
        },
        {
          "internalType": "address",
          "name": "to",
          "type": "address"
        },
        {
          "internalType": "uint256",
          "name": "tokenId",
          "type": "uint256"
        },
        {
          "internalType": "bytes",
          "name": "data",
          "type": "bytes"
        }
      ],
      "name": "safeTransferFrom",
      "outputs": [],
      "stateMutability": "nonpayable",
      "type": "function"
    },
    {
      "inputs": [
        {
          "internalType": "address",
          "name": "operator",
          "type": "address"
        },
        {
          "internalType": "bool",
          "name": "approved",
          "type": "bool"
        }
      ],
      "name": "setApprovalForAll",
      "outputs": [],
      "stateMutability": "nonpayable",
      "type": "function"
    },
    {
      "inputs": [
        {
          "internalType": "address",
          "name": "_builderGardenContract",
          "type": "address"
        },
        {
          "internalType": "address",
          "name": "_builderGardenTBARegistry",
          "type": "address"
        },
        {
          "internalType": "address",
          "name": "_builderGardenTBAImpl",
          "type": "address"
        }
      ],
      "name": "setTBAInfo",
      "outputs": [],
      "stateMutability": "nonpayable",
      "type": "function"
    },
    {
      "inputs": [
        {
          "internalType": "bytes4",
          "name": "interfaceId",
          "type": "bytes4"
        }
      ],
      "name": "supportsInterface",
      "outputs": [
        {
          "internalType": "bool",
          "name": "",
          "type": "bool"
        }
      ],
      "stateMutability": "view",
      "type": "function"
    },
    {
      "inputs": [],
      "name": "symbol",
      "outputs": [
        {
          "internalType": "string",
          "name": "",
          "type": "string"
        }
      ],
      "stateMutability": "view",
      "type": "function"
    },
    {
      "inputs": [
        {
          "internalType": "uint256",
          "name": "tokenId",
          "type": "uint256"
        }
      ],
      "name": "tokenURI",
      "outputs": [
        {
          "internalType": "string",
          "name": "",
          "type": "string"
        }
      ],
      "stateMutability": "view",
      "type": "function"
    },
    {
      "inputs": [
        {
          "internalType": "address",
          "name": "from",
          "type": "address"
        },
        {
          "internalType": "address",
          "name": "to",
          "type": "address"
        },
        {
          "internalType": "uint256",
          "name": "tokenId",
          "type": "uint256"
        }
      ],
      "name": "transferFrom",
      "outputs": [],
      "stateMutability": "nonpayable",
      "type": "function"
    },
    {
      "inputs": [
        {
          "internalType": "address",
          "name": "newOwner",
          "type": "address"
        }
      ],
      "name": "transferOwnership",
      "outputs": [],
      "stateMutability": "nonpayable",
      "type": "function"
    }
  ],
  "bytecode": "0x60806040523480156200001157600080fd5b5060405180604001604052806012815260200171213ab4b63232b923b0b93232b72a37b5b2b760711b815250604051806040016040528060038152602001621091d560ea1b81525081600090816200006a919062000197565b50600162000079828262000197565b50505062000096620000906200009c60201b60201c565b620000a0565b62000263565b3390565b600680546001600160a01b038381166001600160a01b0319831681179093556040519116919082907f8be0079c531659141344cd1fd0a4f28419497f9722a3daafe3b4186f6b6457e090600090a35050565b634e487b7160e01b600052604160045260246000fd5b600181811c908216806200011d57607f821691505b6020821081036200013e57634e487b7160e01b600052602260045260246000fd5b50919050565b601f8211156200019257600081815260208120601f850160051c810160208610156200016d5750805b601f850160051c820191505b818110156200018e5782815560010162000179565b5050505b505050565b81516001600160401b03811115620001b357620001b3620000f2565b620001cb81620001c4845462000108565b8462000144565b602080601f831160018114620002035760008415620001ea5750858301515b600019600386901b1c1916600185901b1785556200018e565b600085815260208120601f198616915b82811015620002345788860151825594840194600190910190840162000213565b5085821015620002535787850151600019600388901b60f8161c191681555b5050505050600190811b01905550565b6117ee80620002736000396000f3fe608060405234801561001057600080fd5b50600436106101515760003560e01c80638da5cb5b116100cd578063b88d4fde11610081578063ce88b14511610066578063ce88b145146102ad578063e985e9c5146102c0578063f2fde38b146102fc57600080fd5b8063b88d4fde14610287578063c87b56dd1461029a57600080fd5b8063a1448194116100b2578063a14481941461024e578063a22cb46514610261578063a640f75f1461027457600080fd5b80638da5cb5b1461023557806395d89b411461024657600080fd5b806323b872dd116101245780636352211e116101095780636352211e146101f957806370a082311461020c578063715018a61461022d57600080fd5b806323b872dd146101d357806342842e0e146101e657600080fd5b806301ffc9a71461015657806306fdde031461017e578063081812fc14610193578063095ea7b3146101be575b600080fd5b61016961016436600461141d565b61030f565b60405190151581526020015b60405180910390f35b610186610361565b604051610175919061148a565b6101a66101a136600461149d565b6103f3565b6040516001600160a01b039091168152602001610175565b6101d16101cc3660046114cb565b61041a565b005b6101d16101e13660046114f7565b610534565b6101d16101f43660046114f7565b6105ab565b6101a661020736600461149d565b6105c6565b61021f61021a366004611538565b61062b565b604051908152602001610175565b6101d16106c5565b6006546001600160a01b03166101a6565b6101866106d9565b6101d161025c3660046114cb565b6106e8565b6101d161026f366004611555565b61070d565b6101d1610282366004611593565b610718565b6101d16102953660046115f4565b61075f565b6101866102a836600461149d565b6107dd565b6101a66102bb36600461149d565b610851565b6101696102ce3660046116d4565b6001600160a01b03918216600090815260056020908152604080832093909416825291909152205460ff1690565b6101d161030a366004611538565b610904565b60006001600160e01b031982166380ac58cd60e01b148061034057506001600160e01b03198216635b5e139f60e01b145b8061035b57506301ffc9a760e01b6001600160e01b03198316145b92915050565b60606000805461037090611702565b80601f016020809104026020016040519081016040528092919081815260200182805461039c90611702565b80156103e95780601f106103be576101008083540402835291602001916103e9565b820191906000526020600020905b8154815290600101906020018083116103cc57829003601f168201915b5050505050905090565b60006103fe82610994565b506000908152600460205260409020546001600160a01b031690565b6000610425826105c6565b9050806001600160a01b0316836001600160a01b0316036104975760405162461bcd60e51b815260206004820152602160248201527f4552433732313a20617070726f76616c20746f2063757272656e74206f776e656044820152603960f91b60648201526084015b60405180910390fd5b336001600160a01b03821614806104b357506104b381336102ce565b6105255760405162461bcd60e51b815260206004820152603d60248201527f4552433732313a20617070726f76652063616c6c6572206973206e6f7420746f60448201527f6b656e206f776e6572206f7220617070726f76656420666f7220616c6c000000606482015260840161048e565b61052f83836109f8565b505050565b61053e3382610a66565b6105a05760405162461bcd60e51b815260206004820152602d60248201527f4552433732313a2063616c6c6572206973206e6f7420746f6b656e206f776e6560448201526c1c881bdc88185c1c1c9bdd9959609a1b606482015260840161048e565b61052f838383610ae5565b61052f8383836040518060200160405280600081525061075f565b6000818152600260205260408120546001600160a01b03168061035b5760405162461bcd60e51b815260206004820152601860248201527f4552433732313a20696e76616c696420746f6b656e2049440000000000000000604482015260640161048e565b60006001600160a01b0382166106a95760405162461bcd60e51b815260206004820152602960248201527f4552433732313a2061646472657373207a65726f206973206e6f74206120766160448201527f6c6964206f776e65720000000000000000000000000000000000000000000000606482015260840161048e565b506001600160a01b031660009081526003602052604090205490565b6106cd610cd2565b6106d76000610d2c565b565b60606001805461037090611702565b6007546001600160a01b031633146106ff57600080fd5b6107098282610d7e565b5050565b610709338383610d98565b610720610cd2565b600780546001600160a01b039485166001600160a01b031991821617909155600880549385169382169390931790925560098054919093169116179055565b6107693383610a66565b6107cb5760405162461bcd60e51b815260206004820152602d60248201527f4552433732313a2063616c6c6572206973206e6f7420746f6b656e206f776e6560448201526c1c881bdc88185c1c1c9bdd9959609a1b606482015260840161048e565b6107d784848484610e66565b50505050565b60606107e882610994565b60006107ff60408051602081019091526000815290565b9050600081511161081f576040518060200160405280600081525061084a565b8061082984610ee4565b60405160200161083a92919061173c565b6040516020818303038152906040525b9392505050565b6008546009546007546040516305d2ce4360e11b81526001600160a01b0392831660048201529082166024820152466044820152606481018490527fb999a5dcac09097da2f33daca55c3c4c7c9b4f8d9e49cbf830b91a378a502e3060848201526000929190911690630ba59c869060a401602060405180830381865afa1580156108e0573d6000803e3d6000fd5b505050506040513d601f19601f8201168201806040525081019061035b919061176b565b61090c610cd2565b6001600160a01b0381166109885760405162461bcd60e51b815260206004820152602660248201527f4f776e61626c653a206e6577206f776e657220697320746865207a65726f206160448201527f6464726573730000000000000000000000000000000000000000000000000000606482015260840161048e565b61099181610d2c565b50565b6000818152600260205260409020546001600160a01b03166109915760405162461bcd60e51b815260206004820152601860248201527f4552433732313a20696e76616c696420746f6b656e2049440000000000000000604482015260640161048e565b600081815260046020526040902080546001600160a01b0319166001600160a01b0384169081179091558190610a2d826105c6565b6001600160a01b03167f8c5be1e5ebec7d5bd14f71427d1e84f3dd0314c0f7b2291e5b200ac8c7c3b92560405160405180910390a45050565b600080610a72836105c6565b9050806001600160a01b0316846001600160a01b03161480610ab957506001600160a01b0380821660009081526005602090815260408083209388168352929052205460ff165b80610add5750836001600160a01b0316610ad2846103f3565b6001600160a01b0316145b949350505050565b826001600160a01b0316610af8826105c6565b6001600160a01b031614610b5c5760405162461bcd60e51b815260206004820152602560248201527f4552433732313a207472616e736665722066726f6d20696e636f72726563742060448201526437bbb732b960d91b606482015260840161048e565b6001600160a01b038216610bbe5760405162461bcd60e51b8152602060048201526024808201527f4552433732313a207472616e7366657220746f20746865207a65726f206164646044820152637265737360e01b606482015260840161048e565b610bcb8383836001610f84565b826001600160a01b0316610bde826105c6565b6001600160a01b031614610c425760405162461bcd60e51b815260206004820152602560248201527f4552433732313a207472616e736665722066726f6d20696e636f72726563742060448201526437bbb732b960d91b606482015260840161048e565b600081815260046020908152604080832080546001600160a01b03199081169091556001600160a01b0387811680865260038552838620805460001901905590871680865283862080546001019055868652600290945282852080549092168417909155905184937fddf252ad1be2c89b69c2b068fc378daa952ba7f163c4a11628f55a4df523b3ef91a4505050565b6006546001600160a01b031633146106d75760405162461bcd60e51b815260206004820181905260248201527f4f776e61626c653a2063616c6c6572206973206e6f7420746865206f776e6572604482015260640161048e565b600680546001600160a01b038381166001600160a01b0319831681179093556040519116919082907f8be0079c531659141344cd1fd0a4f28419497f9722a3daafe3b4186f6b6457e090600090a35050565b610709828260405180602001604052806000815250610fc2565b816001600160a01b0316836001600160a01b031603610df95760405162461bcd60e51b815260206004820152601960248201527f4552433732313a20617070726f766520746f2063616c6c657200000000000000604482015260640161048e565b6001600160a01b03838116600081815260056020908152604080832094871680845294825291829020805460ff191686151590811790915591519182527f17307eab39ab6107e8899845ad3d59bd9653f200f220920489ca2b5937696c31910160405180910390a3505050565b610e71848484610ae5565b610e7d84848484611040565b6107d75760405162461bcd60e51b815260206004820152603260248201527f4552433732313a207472616e7366657220746f206e6f6e20455243373231526560448201527131b2b4bb32b91034b6b83632b6b2b73a32b960711b606482015260840161048e565b60606000610ef18361118c565b600101905060008167ffffffffffffffff811115610f1157610f116115de565b6040519080825280601f01601f191660200182016040528015610f3b576020820181803683370190505b5090508181016020015b600019017f3031323334353637383961626364656600000000000000000000000000000000600a86061a8153600a8504945084610f4557509392505050565b6001600160a01b03841615801590610fa457506001600160a01b03831615155b156107d757604051631870c90d60e21b815260040160405180910390fd5b610fcc838361126e565b610fd96000848484611040565b61052f5760405162461bcd60e51b815260206004820152603260248201527f4552433732313a207472616e7366657220746f206e6f6e20455243373231526560448201527131b2b4bb32b91034b6b83632b6b2b73a32b960711b606482015260840161048e565b60006001600160a01b0384163b1561118157604051630a85bd0160e11b81526001600160a01b0385169063150b7a0290611084903390899088908890600401611788565b6020604051808303816000875af19250505080156110bf575060408051601f3d908101601f191682019092526110bc918101906117c4565b60015b611167573d8080156110ed576040519150601f19603f3d011682016040523d82523d6000602084013e6110f2565b606091505b50805160000361115f5760405162461bcd60e51b815260206004820152603260248201527f4552433732313a207472616e7366657220746f206e6f6e20455243373231526560448201527131b2b4bb32b91034b6b83632b6b2b73a32b960711b606482015260840161048e565b805181602001fd5b6001600160e01b031916630a85bd0160e11b149050610add565b506001949350505050565b6000807a184f03e93ff9f4daa797ed6e38ed64bf6a1f01000000000000000083106111d5577a184f03e93ff9f4daa797ed6e38ed64bf6a1f010000000000000000830492506040015b6d04ee2d6d415b85acef81000000008310611201576d04ee2d6d415b85acef8100000000830492506020015b662386f26fc10000831061121f57662386f26fc10000830492506010015b6305f5e1008310611237576305f5e100830492506008015b612710831061124b57612710830492506004015b6064831061125d576064830492506002015b600a831061035b5760010192915050565b6001600160a01b0382166112c45760405162461bcd60e51b815260206004820181905260248201527f4552433732313a206d696e7420746f20746865207a65726f2061646472657373604482015260640161048e565b6000818152600260205260409020546001600160a01b0316156113295760405162461bcd60e51b815260206004820152601c60248201527f4552433732313a20746f6b656e20616c7265616479206d696e74656400000000604482015260640161048e565b611337600083836001610f84565b6000818152600260205260409020546001600160a01b03161561139c5760405162461bcd60e51b815260206004820152601c60248201527f4552433732313a20746f6b656e20616c7265616479206d696e74656400000000604482015260640161048e565b6001600160a01b038216600081815260036020908152604080832080546001019055848352600290915280822080546001600160a01b0319168417905551839291907fddf252ad1be2c89b69c2b068fc378daa952ba7f163c4a11628f55a4df523b3ef908290a45050565b6001600160e01b03198116811461099157600080fd5b60006020828403121561142f57600080fd5b813561084a81611407565b60005b8381101561145557818101518382015260200161143d565b50506000910152565b6000815180845261147681602086016020860161143a565b601f01601f19169290920160200192915050565b60208152600061084a602083018461145e565b6000602082840312156114af57600080fd5b5035919050565b6001600160a01b038116811461099157600080fd5b600080604083850312156114de57600080fd5b82356114e9816114b6565b946020939093013593505050565b60008060006060848603121561150c57600080fd5b8335611517816114b6565b92506020840135611527816114b6565b929592945050506040919091013590565b60006020828403121561154a57600080fd5b813561084a816114b6565b6000806040838503121561156857600080fd5b8235611573816114b6565b91506020830135801515811461158857600080fd5b809150509250929050565b6000806000606084860312156115a857600080fd5b83356115b3816114b6565b925060208401356115c3816114b6565b915060408401356115d3816114b6565b809150509250925092565b634e487b7160e01b600052604160045260246000fd5b6000806000806080858703121561160a57600080fd5b8435611615816114b6565b93506020850135611625816114b6565b925060408501359150606085013567ffffffffffffffff8082111561164957600080fd5b818701915087601f83011261165d57600080fd5b81358181111561166f5761166f6115de565b604051601f8201601f19908116603f01168101908382118183101715611697576116976115de565b816040528281528a60208487010111156116b057600080fd5b82602086016020830137600060208483010152809550505050505092959194509250565b600080604083850312156116e757600080fd5b82356116f2816114b6565b91506020830135611588816114b6565b600181811c9082168061171657607f821691505b60208210810361173657634e487b7160e01b600052602260045260246000fd5b50919050565b6000835161174e81846020880161143a565b83519083019061176281836020880161143a565b01949350505050565b60006020828403121561177d57600080fd5b815161084a816114b6565b60006001600160a01b038087168352808616602084015250836040830152608060608301526117ba608083018461145e565b9695505050505050565b6000602082840312156117d657600080fd5b815161084a8161140756fea164736f6c6343000813000a",
  "linkReferences": {},
  "deployedLinkReferences": {}
}