{
  "_format": "hh-sol-artifact-1",
  "contractName": "BuilderGardenTBARegistry",
  "sourceName": "contracts/BuilderGardenTBARegistry.sol",
  "abi": [
    {
      "anonymous": false,
      "inputs": [
        {
          "indexed": false,
          "internalType": "address",
          "name": "account",
          "type": "address"
        },
        {
          "indexed": false,
          "internalType": "address",
          "name": "implementation",
          "type": "address"
        },
        {
          "indexed": false,
          "internalType": "uint256",
          "name": "chainId",
          "type": "uint256"
        },
        {
          "indexed": false,
          "internalType": "address",
          "name": "tokenContract",
          "type": "address"
        },
        {
          "indexed": false,
          "internalType": "uint256",
          "name": "tokenId",
          "type": "uint256"
        },
        {
          "indexed": false,
          "internalType": "uint256",
          "name": "salt",
          "type": "uint256"
        }
      ],
      "name": "AccountCreated",
      "type": "event"
    },
    {
      "anonymous": false,
      "inputs": [
        {
          "indexed": true,
          "internalType": "address",
          "name": "previousOwner",
          "type": "address"
        },
        {
          "indexed": true,
          "internalType": "address",
          "name": "newOwner",
          "type": "address"
        }
      ],
      "name": "OwnershipTransferred",
      "type": "event"
    },
    {
      "inputs": [
        {
          "internalType": "address",
          "name": "tbaImpl",
          "type": "address"
        },
        {
          "internalType": "address",
          "name": "nftContract",
          "type": "address"
        },
        {
          "internalType": "uint256",
          "name": "chainId",
          "type": "uint256"
        },
        {
          "internalType": "uint256",
          "name": "tokenId",
          "type": "uint256"
        },
        {
          "internalType": "uint256",
          "name": "salt",
          "type": "uint256"
        }
      ],
      "name": "account",
      "outputs": [
        {
          "internalType": "address",
          "name": "",
          "type": "address"
        }
      ],
      "stateMutability": "view",
      "type": "function"
    },
    {
      "inputs": [
        {
          "internalType": "address",
          "name": "tbaImpl",
          "type": "address"
        },
        {
          "internalType": "address",
          "name": "nftContract",
          "type": "address"
        },
        {
          "internalType": "uint256",
          "name": "tokenId",
          "type": "uint256"
        }
      ],
      "name": "createAccount",
      "outputs": [
        {
          "internalType": "address",
          "name": "",
          "type": "address"
        }
      ],
      "stateMutability": "nonpayable",
      "type": "function"
    },
    {
      "inputs": [],
      "name": "owner",
      "outputs": [
        {
          "internalType": "address",
          "name": "",
          "type": "address"
        }
      ],
      "stateMutability": "view",
      "type": "function"
    },
    {
      "inputs": [],
      "name": "renounceOwnership",
      "outputs": [],
      "stateMutability": "nonpayable",
      "type": "function"
    },
    {
      "inputs": [
        {
          "internalType": "address",
          "name": "newOwner",
          "type": "address"
        }
      ],
      "name": "transferOwnership",
      "outputs": [],
      "stateMutability": "nonpayable",
      "type": "function"
    }
  ],
  "bytecode": "0x608060405234801561001057600080fd5b5061001a3361001f565b61006f565b600080546001600160a01b038381166001600160a01b0319831681178455604051919092169283917f8be0079c531659141344cd1fd0a4f28419497f9722a3daafe3b4186f6b6457e09190a35050565b61065e8061007e6000396000f3fe608060405234801561001057600080fd5b50600436106100675760003560e01c8063715018a611610050578063715018a6146100ae5780638da5cb5b146100b8578063f2fde38b146100c957600080fd5b80630ba59c861461006c5780631230aea21461009b575b600080fd5b61007f61007a366004610516565b6100dc565b6040516001600160a01b03909116815260200160405180910390f35b61007f6100a9366004610563565b61010b565b6100b66101eb565b005b6000546001600160a01b031661007f565b6100b66100d736600461059f565b6101ff565b6000806100ec8786888787610294565b8051602090910120905061010083826102fd565b979650505050505050565b60007fb999a5dcac09097da2f33daca55c3c4c7c9b4f8d9e49cbf830b91a378a502e308161013c8646878786610294565b905060006101548360001b83805190602001206102fd565b90506001600160a01b0381163b156101705792506101e4915050565b61017c6000848461030a565b604080516001600160a01b0383811682528a811660208301524682840152891660608201526080810188905260a0810186905290519192507f07fba7bba1191da7ee1155dcfa0030701c9c9a9cc34a93b991fc6fd0c9268d8f919081900360c00190a1925050505b9392505050565b6101f361040e565b6101fd6000610468565b565b61020761040e565b6001600160a01b0381166102885760405162461bcd60e51b815260206004820152602660248201527f4f776e61626c653a206e6577206f776e657220697320746865207a65726f206160448201527f646472657373000000000000000000000000000000000000000000000000000060648201526084015b60405180910390fd5b61029181610468565b50565b60408051602081018390529081018590526001600160a01b0384166060828101919091526080820184905290869060a00160408051601f19818403018152908290526102e392916020016105ba565b604051602081830303815290604052905095945050505050565b60006101e48383306104d0565b60008347101561035c5760405162461bcd60e51b815260206004820152601d60248201527f437265617465323a20696e73756666696369656e742062616c616e6365000000604482015260640161027f565b81516000036103ad5760405162461bcd60e51b815260206004820181905260248201527f437265617465323a2062797465636f6465206c656e677468206973207a65726f604482015260640161027f565b8282516020840186f590506001600160a01b0381166101e45760405162461bcd60e51b815260206004820152601960248201527f437265617465323a204661696c6564206f6e206465706c6f7900000000000000604482015260640161027f565b6000546001600160a01b031633146101fd5760405162461bcd60e51b815260206004820181905260248201527f4f776e61626c653a2063616c6c6572206973206e6f7420746865206f776e6572604482015260640161027f565b600080546001600160a01b038381167fffffffffffffffffffffffff0000000000000000000000000000000000000000831681178455604051919092169283917f8be0079c531659141344cd1fd0a4f28419497f9722a3daafe3b4186f6b6457e09190a35050565b6000604051836040820152846020820152828152600b8101905060ff815360559020949350505050565b80356001600160a01b038116811461051157600080fd5b919050565b600080600080600060a0868803121561052e57600080fd5b610537866104fa565b9450610545602087016104fa565b94979496505050506040830135926060810135926080909101359150565b60008060006060848603121561057857600080fd5b610581846104fa565b925061058f602085016104fa565b9150604084013590509250925092565b6000602082840312156105b157600080fd5b6101e4826104fa565b7f3d60ad80600a3d3981f3363d3d373d3d3d363d7300000000000000000000000081526bffffffffffffffffffffffff198360601b1660148201527f5af43d82803e903d91602b57fd5bf3000000000000000000000000000000000060288201526000825160005b8181101561063f5760208186018101516037868401015201610622565b5060009201603701918252509291505056fea164736f6c6343000813000a",
  "linkReferences": {},
  "deployedLinkReferences": {}
}