{
  "_format": "hh-sol-artifact-1",
  "contractName": "MinimalReceiver",
  "sourceName": "contracts/lib/MinimalReceiver.sol",
  "abi": [
    {
      "inputs": [
        {
          "internalType": "address",
          "name": "",
          "type": "address"
        },
        {
          "internalType": "address",
          "name": "",
          "type": "address"
        },
        {
          "internalType": "uint256[]",
          "name": "",
          "type": "uint256[]"
        },
        {
          "internalType": "uint256[]",
          "name": "",
          "type": "uint256[]"
        },
        {
          "internalType": "bytes",
          "name": "",
          "type": "bytes"
        }
      ],
      "name": "onERC1155BatchReceived",
      "outputs": [
        {
          "internalType": "bytes4",
          "name": "",
          "type": "bytes4"
        }
      ],
      "stateMutability": "nonpayable",
      "type": "function"
    },
    {
      "inputs": [
        {
          "internalType": "address",
          "name": "",
          "type": "address"
        },
        {
          "internalType": "address",
          "name": "",
          "type": "address"
        },
        {
          "internalType": "uint256",
          "name": "",
          "type": "uint256"
        },
        {
          "internalType": "uint256",
          "name": "",
          "type": "uint256"
        },
        {
          "internalType": "bytes",
          "name": "",
          "type": "bytes"
        }
      ],
      "name": "onERC1155Received",
      "outputs": [
        {
          "internalType": "bytes4",
          "name": "",
          "type": "bytes4"
        }
      ],
      "stateMutability": "nonpayable",
      "type": "function"
    },
    {
      "inputs": [
        {
          "internalType": "address",
          "name": "",
          "type": "address"
        },
        {
          "internalType": "address",
          "name": "",
          "type": "address"
        },
        {
          "internalType": "uint256",
          "name": "",
          "type": "uint256"
        },
        {
          "internalType": "bytes",
          "name": "",
          "type": "bytes"
        }
      ],
      "name": "onERC721Received",
      "outputs": [
        {
          "internalType": "bytes4",
          "name": "",
          "type": "bytes4"
        }
      ],
      "stateMutability": "nonpayable",
      "type": "function"
    },
    {
      "inputs": [
        {
          "internalType": "bytes4",
          "name": "interfaceId",
          "type": "bytes4"
        }
      ],
      "name": "supportsInterface",
      "outputs": [
        {
          "internalType": "bool",
          "name": "",
          "type": "bool"
        }
      ],
      "stateMutability": "view",
      "type": "function"
    },
    {
      "stateMutability": "payable",
      "type": "receive"
    }
  ],
  "bytecode": "0x608060405234801561001057600080fd5b5061046c806100206000396000f3fe6080604052600436106100435760003560e01c806301ffc9a71461004f578063150b7a0214610084578063bc197c81146100c8578063f23a6e61146100f457600080fd5b3661004a57005b600080fd5b34801561005b57600080fd5b5061006f61006a366004610157565b610120565b60405190151581526020015b60405180910390f35b34801561009057600080fd5b506100af61009f366004610268565b630a85bd0160e11b949350505050565b6040516001600160e01b0319909116815260200161007b565b3480156100d457600080fd5b506100af6100e3366004610350565b63bc197c8160e01b95945050505050565b34801561010057600080fd5b506100af61010f3660046103fa565b63f23a6e6160e01b95945050505050565b60006001600160e01b03198216630271189760e51b148061015157506301ffc9a760e01b6001600160e01b03198316145b92915050565b60006020828403121561016957600080fd5b81356001600160e01b03198116811461018157600080fd5b9392505050565b803573ffffffffffffffffffffffffffffffffffffffff811681146101ac57600080fd5b919050565b634e487b7160e01b600052604160045260246000fd5b604051601f8201601f1916810167ffffffffffffffff811182821017156101f0576101f06101b1565b604052919050565b600082601f83011261020957600080fd5b813567ffffffffffffffff811115610223576102236101b1565b610236601f8201601f19166020016101c7565b81815284602083860101111561024b57600080fd5b816020850160208301376000918101602001919091529392505050565b6000806000806080858703121561027e57600080fd5b61028785610188565b935061029560208601610188565b925060408501359150606085013567ffffffffffffffff8111156102b857600080fd5b6102c4878288016101f8565b91505092959194509250565b600082601f8301126102e157600080fd5b8135602067ffffffffffffffff8211156102fd576102fd6101b1565b8160051b61030c8282016101c7565b928352848101820192828101908785111561032657600080fd5b83870192505b848310156103455782358252918301919083019061032c565b979650505050505050565b600080600080600060a0868803121561036857600080fd5b61037186610188565b945061037f60208701610188565b9350604086013567ffffffffffffffff8082111561039c57600080fd5b6103a889838a016102d0565b945060608801359150808211156103be57600080fd5b6103ca89838a016102d0565b935060808801359150808211156103e057600080fd5b506103ed888289016101f8565b9150509295509295909350565b600080600080600060a0868803121561041257600080fd5b61041b86610188565b945061042960208701610188565b93506040860135925060608601359150608086013567ffffffffffffffff81111561045357600080fd5b6103ed888289016101f856fea164736f6c6343000813000a",
  "linkReferences": {},
  "deployedLinkReferences": {}
}