{
  "_format": "hh-sol-artifact-1",
  "contractName": "BuilderGarden",
  "sourceName": "contracts/BuilderGarden.sol",
  "abi": [
    {
      "inputs": [
        {
          "internalType": "address",
          "name": "_bgTbaRegistry",
          "type": "address"
        },
        {
          "internalType": "address",
          "name": "_bgNftContract",
          "type": "address"
        },
        {
          "internalType": "address",
          "name": "_tbaImpl",
          "type": "address"
        }
      ],
      "stateMutability": "nonpayable",
      "type": "constructor"
    },
    {
      "anonymous": false,
      "inputs": [
        {
          "indexed": false,
          "internalType": "string",
          "name": "nickName",
          "type": "string"
        },
        {
          "indexed": false,
          "internalType": "address",
          "name": "eoa",
          "type": "address"
        },
        {
          "indexed": false,
          "internalType": "address",
          "name": "tba",
          "type": "address"
        },
        {
          "indexed": false,
          "internalType": "uint256",
          "name": "tokenId",
          "type": "uint256"
        },
        {
          "indexed": false,
          "internalType": "uint256",
          "name": "userType",
          "type": "uint256"
        }
      ],
      "name": "SignUp",
      "type": "event"
    },
    {
      "inputs": [
        {
          "internalType": "string",
          "name": "nickName",
          "type": "string"
        }
      ],
      "name": "backerSignUp",
      "outputs": [],
      "stateMutability": "nonpayable",
      "type": "function"
    },
    {
      "inputs": [
        {
          "internalType": "string",
          "name": "nickName",
          "type": "string"
        }
      ],
      "name": "builderSignUp",
      "outputs": [],
      "stateMutability": "nonpayable",
      "type": "function"
    },
    {
      "inputs": [],
      "name": "getBackerNumber",
      "outputs": [
        {
          "internalType": "uint256",
          "name": "",
          "type": "uint256"
        }
      ],
      "stateMutability": "view",
      "type": "function"
    },
    {
      "inputs": [],
      "name": "getBuilderNumber",
      "outputs": [
        {
          "internalType": "uint256",
          "name": "",
          "type": "uint256"
        }
      ],
      "stateMutability": "view",
      "type": "function"
    },
    {
      "inputs": [
        {
          "internalType": "address",
          "name": "user",
          "type": "address"
        }
      ],
      "name": "getTBAAddress",
      "outputs": [
        {
          "internalType": "address",
          "name": "",
          "type": "address"
        }
      ],
      "stateMutability": "view",
      "type": "function"
    }
  ],
  "bytecode": "0x608060405234801561001057600080fd5b5060405161085338038061085383398101604081905261002f9161008d565b600080546001600160a01b039485166001600160a01b0319918216179091556001805493851693821693909317909255600280549190931691161790556100d0565b80516001600160a01b038116811461008857600080fd5b919050565b6000806000606084860312156100a257600080fd5b6100ab84610071565b92506100b960208501610071565b91506100c760408501610071565b90509250925092565b610774806100df6000396000f3fe608060405234801561001057600080fd5b50600436106100675760003560e01c806394b4450e1161005057806394b4450e146100ca578063ba7043e6146100dc578063e64e6b70146100e457600080fd5b806307aa97d41461006c5780638e1daaba14610081575b600080fd5b61007f61007a3660046105b9565b6100f7565b005b6100ad61008f366004610643565b6001600160a01b039081166000908152600560205260409020541690565b6040516001600160a01b0390911681526020015b60405180910390f35b6004545b6040519081526020016100c1565b6003546100ce565b61007f6100f23660046105b9565b61035c565b6001546040516370a0823160e01b81523360048201526001600160a01b03909116906370a0823190602401602060405180830381865afa15801561013f573d6000803e3d6000fd5b505050506040513d601f19601f820116820180604052508101906101639190610667565b1561016d57600080fd5b600180546003546001600160a01b039091169163a14481949133916101929190610696565b61019d9060026106af565b6040516001600160e01b031960e085901b1681526001600160a01b0390921660048301526024820152604401600060405180830381600087803b1580156101e357600080fd5b505af11580156101f7573d6000803e3d6000fd5b505060008054600254600180546003549496506001600160a01b039384169550631230aea29492841693169161022c91610696565b6102379060026106af565b6040516001600160e01b031960e086901b1681526001600160a01b03938416600482015292909116602483015260448201526064016020604051808303816000875af115801561028b573d6000803e3d6000fd5b505050506040513d601f19601f820116820180604052508101906102af91906106c6565b336000818152600560205260409020805473ffffffffffffffffffffffffffffffffffffffff19166001600160a01b0384161790556003549192507f9e56cd34ca01da3a3f4fc8f0924dcb1f40c5a1e7f5807be4b8002d8c4504b59e9185918591859061031d906001610696565b6103289060026106af565b600160405161033c9695949392919061070c565b60405180910390a16003600081546103539061074e565b90915550505050565b6001546040516370a0823160e01b81523360048201526001600160a01b03909116906370a0823190602401602060405180830381865afa1580156103a4573d6000803e3d6000fd5b505050506040513d601f19601f820116820180604052508101906103c89190610667565b156103d257600080fd5b6001546004546001600160a01b039091169063a14481949033906103f79060026106af565b610402906001610696565b6040516001600160e01b031960e085901b1681526001600160a01b0390921660048301526024820152604401600060405180830381600087803b15801561044857600080fd5b505af115801561045c573d6000803e3d6000fd5b505060008054600280546001546004549496506001600160a01b039384169550631230aea29491841693169161049291906106af565b61049d906001610696565b6040516001600160e01b031960e086901b1681526001600160a01b03938416600482015292909116602483015260448201526064016020604051808303816000875af11580156104f1573d6000803e3d6000fd5b505050506040513d601f19601f8201168201806040525081019061051591906106c6565b336000818152600560205260409020805473ffffffffffffffffffffffffffffffffffffffff19166001600160a01b0384161790556004549192507f9e56cd34ca01da3a3f4fc8f0924dcb1f40c5a1e7f5807be4b8002d8c4504b59e918591859185906105839060026106af565b61058e906001610696565b60006040516105a29695949392919061070c565b60405180910390a16004600081546103539061074e565b600080602083850312156105cc57600080fd5b823567ffffffffffffffff808211156105e457600080fd5b818501915085601f8301126105f857600080fd5b81358181111561060757600080fd5b86602082850101111561061957600080fd5b60209290920196919550909350505050565b6001600160a01b038116811461064057600080fd5b50565b60006020828403121561065557600080fd5b81356106608161062b565b9392505050565b60006020828403121561067957600080fd5b5051919050565b634e487b7160e01b600052601160045260246000fd5b808201808211156106a9576106a9610680565b92915050565b80820281158282048414176106a9576106a9610680565b6000602082840312156106d857600080fd5b81516106608161062b565b81835281816020850137506000828201602090810191909152601f909101601f19169091010190565b60a08152600061072060a08301888a6106e3565b6001600160a01b03968716602084015294909516604082015260608101929092526080909101529392505050565b60006001820161076057610760610680565b506001019056fea164736f6c6343000813000a",
  "linkReferences": {},
  "deployedLinkReferences": {}
}