{
  "_format": "hh-sol-artifact-1",
  "contractName": "ALT",
  "sourceName": "contracts/nft/ALT.sol",
  "abi": [
    {
      "inputs": [
        {
          "internalType": "string",
          "name": "uri",
          "type": "string"
        }
      ],
      "stateMutability": "nonpayable",
      "type": "constructor"
    },
    {
      "inputs": [],
      "name": "SoulBounded",
      "type": "error"
    },
    {
      "anonymous": false,
      "inputs": [
        {
          "indexed": true,
          "internalType": "address",
          "name": "account",
          "type": "address"
        },
        {
          "indexed": true,
          "internalType": "address",
          "name": "operator",
          "type": "address"
        },
        {
          "indexed": false,
          "internalType": "bool",
          "name": "approved",
          "type": "bool"
        }
      ],
      "name": "ApprovalForAll",
      "type": "event"
    },
    {
      "anonymous": false,
      "inputs": [
        {
          "indexed": true,
          "internalType": "address",
          "name": "operator",
          "type": "address"
        },
        {
          "indexed": true,
          "internalType": "address",
          "name": "from",
          "type": "address"
        },
        {
          "indexed": true,
          "internalType": "address",
          "name": "to",
          "type": "address"
        },
        {
          "indexed": false,
          "internalType": "uint256[]",
          "name": "ids",
          "type": "uint256[]"
        },
        {
          "indexed": false,
          "internalType": "uint256[]",
          "name": "values",
          "type": "uint256[]"
        }
      ],
      "name": "TransferBatch",
      "type": "event"
    },
    {
      "anonymous": false,
      "inputs": [
        {
          "indexed": true,
          "internalType": "address",
          "name": "operator",
          "type": "address"
        },
        {
          "indexed": true,
          "internalType": "address",
          "name": "from",
          "type": "address"
        },
        {
          "indexed": true,
          "internalType": "address",
          "name": "to",
          "type": "address"
        },
        {
          "indexed": false,
          "internalType": "uint256",
          "name": "id",
          "type": "uint256"
        },
        {
          "indexed": false,
          "internalType": "uint256",
          "name": "value",
          "type": "uint256"
        }
      ],
      "name": "TransferSingle",
      "type": "event"
    },
    {
      "anonymous": false,
      "inputs": [
        {
          "indexed": false,
          "internalType": "string",
          "name": "value",
          "type": "string"
        },
        {
          "indexed": true,
          "internalType": "uint256",
          "name": "id",
          "type": "uint256"
        }
      ],
      "name": "URI",
      "type": "event"
    },
    {
      "inputs": [
        {
          "internalType": "address",
          "name": "account",
          "type": "address"
        },
        {
          "internalType": "uint256",
          "name": "id",
          "type": "uint256"
        }
      ],
      "name": "balanceOf",
      "outputs": [
        {
          "internalType": "uint256",
          "name": "",
          "type": "uint256"
        }
      ],
      "stateMutability": "view",
      "type": "function"
    },
    {
      "inputs": [
        {
          "internalType": "address[]",
          "name": "accounts",
          "type": "address[]"
        },
        {
          "internalType": "uint256[]",
          "name": "ids",
          "type": "uint256[]"
        }
      ],
      "name": "balanceOfBatch",
      "outputs": [
        {
          "internalType": "uint256[]",
          "name": "",
          "type": "uint256[]"
        }
      ],
      "stateMutability": "view",
      "type": "function"
    },
    {
      "inputs": [
        {
          "internalType": "address",
          "name": "account",
          "type": "address"
        },
        {
          "internalType": "address",
          "name": "operator",
          "type": "address"
        }
      ],
      "name": "isApprovedForAll",
      "outputs": [
        {
          "internalType": "bool",
          "name": "",
          "type": "bool"
        }
      ],
      "stateMutability": "view",
      "type": "function"
    },
    {
      "inputs": [
        {
          "internalType": "address",
          "name": "builderTBA",
          "type": "address"
        },
        {
          "internalType": "address[]",
          "name": "backerTBA",
          "type": "address[]"
        },
        {
          "internalType": "uint256[]",
          "name": "numUnits",
          "type": "uint256[]"
        }
      ],
      "name": "mint",
      "outputs": [],
      "stateMutability": "nonpayable",
      "type": "function"
    },
    {
      "inputs": [
        {
          "internalType": "address",
          "name": "from",
          "type": "address"
        },
        {
          "internalType": "address",
          "name": "to",
          "type": "address"
        },
        {
          "internalType": "uint256[]",
          "name": "ids",
          "type": "uint256[]"
        },
        {
          "internalType": "uint256[]",
          "name": "amounts",
          "type": "uint256[]"
        },
        {
          "internalType": "bytes",
          "name": "data",
          "type": "bytes"
        }
      ],
      "name": "safeBatchTransferFrom",
      "outputs": [],
      "stateMutability": "nonpayable",
      "type": "function"
    },
    {
      "inputs": [
        {
          "internalType": "address",
          "name": "from",
          "type": "address"
        },
        {
          "internalType": "address",
          "name": "to",
          "type": "address"
        },
        {
          "internalType": "uint256",
          "name": "id",
          "type": "uint256"
        },
        {
          "internalType": "uint256",
          "name": "amount",
          "type": "uint256"
        },
        {
          "internalType": "bytes",
          "name": "data",
          "type": "bytes"
        }
      ],
      "name": "safeTransferFrom",
      "outputs": [],
      "stateMutability": "nonpayable",
      "type": "function"
    },
    {
      "inputs": [
        {
          "internalType": "address",
          "name": "operator",
          "type": "address"
        },
        {
          "internalType": "bool",
          "name": "approved",
          "type": "bool"
        }
      ],
      "name": "setApprovalForAll",
      "outputs": [],
      "stateMutability": "nonpayable",
      "type": "function"
    },
    {
      "inputs": [
        {
          "internalType": "bytes4",
          "name": "interfaceId",
          "type": "bytes4"
        }
      ],
      "name": "supportsInterface",
      "outputs": [
        {
          "internalType": "bool",
          "name": "",
          "type": "bool"
        }
      ],
      "stateMutability": "view",
      "type": "function"
    },
    {
      "inputs": [],
      "name": "symbol",
      "outputs": [
        {
          "internalType": "string",
          "name": "",
          "type": "string"
        }
      ],
      "stateMutability": "view",
      "type": "function"
    },
    {
      "inputs": [
        {
          "internalType": "uint256",
          "name": "",
          "type": "uint256"
        }
      ],
      "name": "uri",
      "outputs": [
        {
          "internalType": "string",
          "name": "",
          "type": "string"
        }
      ],
      "stateMutability": "view",
      "type": "function"
    }
  ],
  "bytecode": "0x60c0604052600360808181526210531560ea1b60a0526200002190826200011d565b503480156200002f57600080fd5b5060405162001bb138038062001bb18339810160408190526200005291620001e9565b806200005e8162000066565b5050620002be565b60026200007482826200011d565b5050565b634e487b7160e01b600052604160045260246000fd5b600181811c90821680620000a357607f821691505b602082108103620000c457634e487b7160e01b600052602260045260246000fd5b50919050565b601f8211156200011857600081815260208120601f850160051c81016020861015620000f35750805b601f850160051c820191505b818110156200011457828155600101620000ff565b5050505b505050565b81516001600160401b0381111562000139576200013962000078565b62000151816200014a84546200008e565b84620000ca565b602080601f831160018114620001895760008415620001705750858301515b600019600386901b1c1916600185901b17855562000114565b600085815260208120601f198616915b82811015620001ba5788860151825594840194600190910190840162000199565b5085821015620001d95787850151600019600388901b60f8161c191681555b5050505050600190811b01905550565b60006020808385031215620001fd57600080fd5b82516001600160401b03808211156200021557600080fd5b818501915085601f8301126200022a57600080fd5b8151818111156200023f576200023f62000078565b604051601f8201601f19908116603f011681019083821181831017156200026a576200026a62000078565b8160405282815288868487010111156200028357600080fd5b600093505b82841015620002a7578484018601518185018701529285019262000288565b600086848301015280965050505050505092915050565b6118e380620002ce6000396000f3fe608060405234801561001057600080fd5b50600436106100bd5760003560e01c806395d89b4111610076578063a3bf277e1161005b578063a3bf277e1461017b578063e985e9c51461018e578063f242432a146101ca57600080fd5b806395d89b4114610160578063a22cb4651461016857600080fd5b80630e89341c116100a75780630e89341c1461010b5780632eb2c2d61461012b5780634e1273f41461014057600080fd5b8062fdd58e146100c257806301ffc9a7146100e8575b600080fd5b6100d56100d0366004611143565b6101dd565b6040519081526020015b60405180910390f35b6100fb6100f6366004611186565b610289565b60405190151581526020016100df565b61011e6101193660046111aa565b6102d9565b6040516100df9190611209565b61013e610139366004611368565b61036d565b005b61015361014e36600461147f565b610400565b6040516100df919061151e565b61011e61053e565b61013e610176366004611531565b6105cc565b61013e61018936600461156d565b6105db565b6100fb61019c3660046115e1565b6001600160a01b03918216600090815260016020908152604080832093909416825291909152205460ff1690565b61013e6101d8366004611614565b6106d5565b60006001600160a01b0383166102605760405162461bcd60e51b815260206004820152602a60248201527f455243313135353a2061646472657373207a65726f206973206e6f742061207660448201527f616c6964206f776e65720000000000000000000000000000000000000000000060648201526084015b60405180910390fd5b506000818152602081815260408083206001600160a01b03861684529091529020545b92915050565b60006001600160e01b03198216636cdb3d1360e11b14806102ba57506001600160e01b031982166303a24d0760e21b145b8061028357506301ffc9a760e01b6001600160e01b0319831614610283565b6060600280546102e890611679565b80601f016020809104026020016040519081016040528092919081815260200182805461031490611679565b80156103615780601f1061033657610100808354040283529160200191610361565b820191906000526020600020905b81548152906001019060200180831161034457829003601f168201915b50505050509050919050565b6001600160a01b0385163314806103895750610389853361019c565b6103ec5760405162461bcd60e51b815260206004820152602e60248201527f455243313135353a2063616c6c6572206973206e6f7420746f6b656e206f776e60448201526d195c881bdc88185c1c1c9bdd995960921b6064820152608401610257565b6103f98585858585610761565b5050505050565b606081518351146104795760405162461bcd60e51b815260206004820152602960248201527f455243313135353a206163636f756e747320616e6420696473206c656e67746860448201527f206d69736d6174636800000000000000000000000000000000000000000000006064820152608401610257565b6000835167ffffffffffffffff8111156104955761049561121c565b6040519080825280602002602001820160405280156104be578160200160208202803683370190505b50905060005b8451811015610536576105098582815181106104e2576104e26116b3565b60200260200101518583815181106104fc576104fc6116b3565b60200260200101516101dd565b82828151811061051b5761051b6116b3565b602090810291909101015261052f816116df565b90506104c4565b509392505050565b6003805461054b90611679565b80601f016020809104026020016040519081016040528092919081815260200182805461057790611679565b80156105c45780601f10610599576101008083540402835291602001916105c4565b820191906000526020600020905b8154815290600101906020018083116105a757829003601f168201915b505050505081565b6105d73383836109e2565b5050565b6000805b83518110156106875761064e8482815181106105fd576105fd6116b3565b6020026020010151600454600261061491906116f8565b61061f90600261170f565b858481518110610631576106316116b3565b602002602001015160405180602001604052806000815250610ad6565b828181518110610660576106606116b3565b602002602001015182610673919061170f565b91508061067f816116df565b9150506105df565b506106bc84600454600261069b91906116f8565b6106a690600161170f565b8360405180602001604052806000815250610ad6565b6004600081546106cb906116df565b9091555050505050565b6001600160a01b0385163314806106f157506106f1853361019c565b6107545760405162461bcd60e51b815260206004820152602e60248201527f455243313135353a2063616c6c6572206973206e6f7420746f6b656e206f776e60448201526d195c881bdc88185c1c1c9bdd995960921b6064820152608401610257565b6103f98585858585610bf9565b81518351146107d85760405162461bcd60e51b815260206004820152602860248201527f455243313135353a2069647320616e6420616d6f756e7473206c656e6774682060448201527f6d69736d617463680000000000000000000000000000000000000000000000006064820152608401610257565b6001600160a01b03841661083c5760405162461bcd60e51b815260206004820152602560248201527f455243313135353a207472616e7366657220746f20746865207a65726f206164604482015264647265737360d81b6064820152608401610257565b3361084b818787878787610db2565b60005b845181101561097457600085828151811061086b5761086b6116b3565b602002602001015190506000858381518110610889576108896116b3565b602090810291909101810151600084815280835260408082206001600160a01b038e16835290935291909120549091508181101561091c5760405162461bcd60e51b815260206004820152602a60248201527f455243313135353a20696e73756666696369656e742062616c616e636520666f60448201526939103a3930b739b332b960b11b6064820152608401610257565b6000838152602081815260408083206001600160a01b038e8116855292528083208585039055908b1682528120805484929061095990849061170f565b925050819055505050508061096d906116df565b905061084e565b50846001600160a01b0316866001600160a01b0316826001600160a01b03167f4a39dc06d4c0dbc64b70af90fd698a233a518aa5d07e595d983b8c0526c8f7fb87876040516109c4929190611722565b60405180910390a46109da818787878787610e3b565b505050505050565b816001600160a01b0316836001600160a01b031603610a695760405162461bcd60e51b815260206004820152602960248201527f455243313135353a2073657474696e6720617070726f76616c2073746174757360448201527f20666f722073656c6600000000000000000000000000000000000000000000006064820152608401610257565b6001600160a01b03838116600081815260016020908152604080832094871680845294825291829020805460ff191686151590811790915591519182527f17307eab39ab6107e8899845ad3d59bd9653f200f220920489ca2b5937696c31910160405180910390a3505050565b6001600160a01b038416610b365760405162461bcd60e51b815260206004820152602160248201527f455243313135353a206d696e7420746f20746865207a65726f206164647265736044820152607360f81b6064820152608401610257565b336000610b4285610fe0565b90506000610b4f85610fe0565b9050610b6083600089858589610db2565b6000868152602081815260408083206001600160a01b038b16845290915281208054879290610b9090849061170f565b909155505060408051878152602081018790526001600160a01b03808a1692600092918716917fc3d58168c5ae7397731d063d5bbf3d657854427343f4c083240f7aacaa2d0f62910160405180910390a4610bf08360008989898961102b565b50505050505050565b6001600160a01b038416610c5d5760405162461bcd60e51b815260206004820152602560248201527f455243313135353a207472616e7366657220746f20746865207a65726f206164604482015264647265737360d81b6064820152608401610257565b336000610c6985610fe0565b90506000610c7685610fe0565b9050610c86838989858589610db2565b6000868152602081815260408083206001600160a01b038c16845290915290205485811015610d0a5760405162461bcd60e51b815260206004820152602a60248201527f455243313135353a20696e73756666696369656e742062616c616e636520666f60448201526939103a3930b739b332b960b11b6064820152608401610257565b6000878152602081815260408083206001600160a01b038d8116855292528083208985039055908a16825281208054889290610d4790849061170f565b909155505060408051888152602081018890526001600160a01b03808b16928c821692918816917fc3d58168c5ae7397731d063d5bbf3d657854427343f4c083240f7aacaa2d0f62910160405180910390a4610da7848a8a8a8a8a61102b565b505050505050505050565b60005b8351811015610bf0576002848281518110610dd257610dd26116b3565b6020026020010151610de49190611750565b600103610e29576001600160a01b03861615801590610e0b57506001600160a01b03851615155b15610e2957604051631870c90d60e21b815260040160405180910390fd5b80610e33816116df565b915050610db5565b6001600160a01b0384163b156109da5760405163bc197c8160e01b81526001600160a01b0385169063bc197c8190610e7f9089908990889088908890600401611772565b6020604051808303816000875af1925050508015610eba575060408051601f3d908101601f19168201909252610eb7918101906117d0565b60015b610f6f57610ec66117ed565b806308c379a003610eff5750610eda611809565b80610ee55750610f01565b8060405162461bcd60e51b81526004016102579190611209565b505b60405162461bcd60e51b815260206004820152603460248201527f455243313135353a207472616e7366657220746f206e6f6e2d4552433131353560448201527f526563656976657220696d706c656d656e7465720000000000000000000000006064820152608401610257565b6001600160e01b0319811663bc197c8160e01b14610bf05760405162461bcd60e51b815260206004820152602860248201527f455243313135353a204552433131353552656365697665722072656a656374656044820152676420746f6b656e7360c01b6064820152608401610257565b6040805160018082528183019092526060916000919060208083019080368337019050509050828160008151811061101a5761101a6116b3565b602090810291909101015292915050565b6001600160a01b0384163b156109da5760405163f23a6e6160e01b81526001600160a01b0385169063f23a6e619061106f9089908990889088908890600401611893565b6020604051808303816000875af19250505080156110aa575060408051601f3d908101601f191682019092526110a7918101906117d0565b60015b6110b657610ec66117ed565b6001600160e01b0319811663f23a6e6160e01b14610bf05760405162461bcd60e51b815260206004820152602860248201527f455243313135353a204552433131353552656365697665722072656a656374656044820152676420746f6b656e7360c01b6064820152608401610257565b80356001600160a01b038116811461113e57600080fd5b919050565b6000806040838503121561115657600080fd5b61115f83611127565b946020939093013593505050565b6001600160e01b03198116811461118357600080fd5b50565b60006020828403121561119857600080fd5b81356111a38161116d565b9392505050565b6000602082840312156111bc57600080fd5b5035919050565b6000815180845260005b818110156111e9576020818501810151868301820152016111cd565b506000602082860101526020601f19601f83011685010191505092915050565b6020815260006111a360208301846111c3565b634e487b7160e01b600052604160045260246000fd5b601f8201601f1916810167ffffffffffffffff811182821017156112585761125861121c565b6040525050565b600067ffffffffffffffff8211156112795761127961121c565b5060051b60200190565b600082601f83011261129457600080fd5b813560206112a18261125f565b6040516112ae8282611232565b83815260059390931b85018201928281019150868411156112ce57600080fd5b8286015b848110156112e957803583529183019183016112d2565b509695505050505050565b600082601f83011261130557600080fd5b813567ffffffffffffffff81111561131f5761131f61121c565b604051611336601f8301601f191660200182611232565b81815284602083860101111561134b57600080fd5b816020850160208301376000918101602001919091529392505050565b600080600080600060a0868803121561138057600080fd5b61138986611127565b945061139760208701611127565b9350604086013567ffffffffffffffff808211156113b457600080fd5b6113c089838a01611283565b945060608801359150808211156113d657600080fd5b6113e289838a01611283565b935060808801359150808211156113f857600080fd5b50611405888289016112f4565b9150509295509295909350565b600082601f83011261142357600080fd5b813560206114308261125f565b60405161143d8282611232565b83815260059390931b850182019282810191508684111561145d57600080fd5b8286015b848110156112e95761147281611127565b8352918301918301611461565b6000806040838503121561149257600080fd5b823567ffffffffffffffff808211156114aa57600080fd5b6114b686838701611412565b935060208501359150808211156114cc57600080fd5b506114d985828601611283565b9150509250929050565b600081518084526020808501945080840160005b83811015611513578151875295820195908201906001016114f7565b509495945050505050565b6020815260006111a360208301846114e3565b6000806040838503121561154457600080fd5b61154d83611127565b91506020830135801515811461156257600080fd5b809150509250929050565b60008060006060848603121561158257600080fd5b61158b84611127565b9250602084013567ffffffffffffffff808211156115a857600080fd5b6115b487838801611412565b935060408601359150808211156115ca57600080fd5b506115d786828701611283565b9150509250925092565b600080604083850312156115f457600080fd5b6115fd83611127565b915061160b60208401611127565b90509250929050565b600080600080600060a0868803121561162c57600080fd5b61163586611127565b945061164360208701611127565b93506040860135925060608601359150608086013567ffffffffffffffff81111561166d57600080fd5b611405888289016112f4565b600181811c9082168061168d57607f821691505b6020821081036116ad57634e487b7160e01b600052602260045260246000fd5b50919050565b634e487b7160e01b600052603260045260246000fd5b634e487b7160e01b600052601160045260246000fd5b6000600182016116f1576116f16116c9565b5060010190565b8082028115828204841417610283576102836116c9565b80820180821115610283576102836116c9565b60408152600061173560408301856114e3565b828103602084015261174781856114e3565b95945050505050565b60008261176d57634e487b7160e01b600052601260045260246000fd5b500690565b60006001600160a01b03808816835280871660208401525060a0604083015261179e60a08301866114e3565b82810360608401526117b081866114e3565b905082810360808401526117c481856111c3565b98975050505050505050565b6000602082840312156117e257600080fd5b81516111a38161116d565b600060033d11156118065760046000803e5060005160e01c5b90565b600060443d10156118175790565b6040516003193d81016004833e81513d67ffffffffffffffff816024840111818411171561184757505050505090565b828501915081518181111561185f5750505050505090565b843d87010160208285010111156118795750505050505090565b61188860208286010187611232565b509095945050505050565b60006001600160a01b03808816835280871660208401525084604083015283606083015260a060808301526118cb60a08301846111c3565b97965050505050505056fea164736f6c6343000813000a",
  "linkReferences": {},
  "deployedLinkReferences": {}
}